:020000040800F2
:10000000D0040020D500000875100008790F000802
:1000100000000000000000000000000000000000E0
:10002000000000000000000000000000791000083F
:100030000000000000000000771000087B1000089E
:10004000E7000008E7000008E7000008E7000008F4
:10005000E7000008E7000008E7000008E7000008E4
:10006000E7000008E7000008E7000008E7000008D4
:10007000E7000008E7000008E7000008E7000008C4
:10008000E7000008E700000800000000E7000008A3
:10009000E7000008E7000008E7000008E7000008A4
:1000A000E7000008E7000008E700000881150008E5
:1000B000E700000800000000E7000008044885464B
:1000C00000F090F80048004725160008C046C046DA
:1000D000D00400200448804704480047FEE7FEE7BC
:1000E000FEE7FEE7FEE7FEE7DF100008BD000008C0
:1000F00030B50B46014600202022012409E00D46C0
:10010000D5409D4205D31D469540491B2546954047
:1001100040191546521E002DF1DC30BDF0B51FB45C
:100120000646002082B005464024019100901BE065
:10013000019922460F46304600F020F8049A059BAC
:10014000801A994110D310461946224600F039F81A
:10015000361A8F410197224601200021009F00F0AE
:1001600030F838184D4100902046641E0028DFDC2E
:10017000019B00982946324607B0F0BD10B5202AF1
:1001800004DB0846203AD040002110BD0B46D34086
:10019000D0402024A21A91400843194610BDD2B283
:1001A00001E00270401C491EFBD270470022F6E7B6
:1001B00010B513460A4604461946FFF7F0FF2046DD
:1001C00010BD10B5202A04DB0146203A91400020E2
:1001D00010BD914020239C1A0346E34019439040F0
:1001E00010BD0000064C0125064E05E0E36807CC73
:1001F0002B430C3C98471034B442F7D3FFF762FF0F
:10020000B0170008D017000870B50024014620314F
:100210004A78022A03D004218163012416E002688F
:1002200013680E25AB431360026813685B085B001C
:1002300013600122056C1346AB40C56B6B604A70BE
:1002400000220A70416B002900D08847204670BD0B
:10025000FCB500230124A1E027462A469F403A40EE
:1002600073D04D68012D05D0022D03D0112D01D082
:10027000122D16D185680326AC465D00AE46AE4011
:100280006546B543AC46CE687546AE4065462E43DE
:10029000866046680D79BE43ED06ED0F9D403543FF
:1002A0004560C6685F000325BD40AE46AE43354697
:1002B0008E68BE402E43C6604E68022E01D0122EBC
:1002C00014D1DE08B60036180196366A5D07B446CA
:1002D000EE0E0F25B54000966646AE43B4460D6956
:1002E000009EB54066462E43019D2E620668754607
:1002F000AE430D79AD07AD0FBD40354305604D6888
:10030000ED004AD5284DAE692643AE61AD699E0821
:10031000ED07ED0F0095254DB6007519AC46AD689B
:100320009E07360F0F27B740BD430927FF06B84287
:1003300001D1002710E01E4FB84201D101270BE088
:100340001C4FB84202D1022706E026E01A4FB842FD
:1003500001D1032700E00527B7402F436546AF6072
:10036000164E35684F689543FF0300D51543356039
:1003700075684F689543BF0300D515437560B56830
:100380004F689543FF0200D51543B560F5684F6887
:100390009543BF0200D51543F5605B1C0A681546FE
:1003A000DA4000D058E7FCBD0010024000000140D8
:1003B0000004004800080048000C00480004014008
:1003C0000069084000D001207047002A01D08161F7
:1003D00070478162704700000148806870470000E4
:1003E0000000002002488168027889188160704707
:1003F0000000002010B5064801681022114301607A
:10040000002000F007F800F027F8002010BD0000E1
:100410000020024070B504460D4D7D202978C000B3
:10042000FFF766FE01460B480068FFF761FE00F02B
:100430004BFB002809D1042C07D200222146401E84
:1004400000F02AF800206C6070BD012070BD000033
:10045000000000200C00002008B508488169012236
:1004600011438161816911400091C26901040A430D
:10047000C261C0690840009008BD00000010024041
:10048000002805DBC106C90E01208840014908602B
:100490007047000000E100E010B501F091F810BDD8
:1004A000F8B505460068394CC00352D5E06900260E
:1004B000C00007D4E16920040143E161E169014022
:1004C0000126009132480168C90510D401688215DF
:1004D00011430160FFF780FF074604E0FFF77CFF50
:1004E000C01B642824D82A480068C005F6D5206AB5
:1004F00003273F02384020D06968394081421CD030
:10050000206A226AB843012109040A432262226A4E
:100510008A4322622062C0070FD0FFF75DFF009080
:1005200008E0FFF759FF0099411A1A48814201D9A2
:100530000320F8BD206A8007F3D5206A6968B843B4
:1005400008432062002E04D0E169012000078143A6
:10055000E1612878C00705D0206BA9688008800079
:10056000084320632878800605D5206B1021884336
:10057000E968084320632888400505D5206B4021A1
:1005800088432969084320630020F8BD0010024019
:100590000070004088130000F8B50F46060059D0DF
:1005A0003A4D2868C007C00FB84209D228684008F1
:1005B0004000384328602868C007C00FB84249D1BE
:1005C0003068334C81070CD5400704D5606807219B
:1005D0000902084360606068F0218843B1680843FD
:1005E00060603078C00726D0706801280ED021687E
:1005F00002280ED0890700292CDA61688908890051
:1006000001436160FFF7E8FE00900DE02168890377
:10061000F1E78901EFE7FFF7DFFE0099411A1D4876
:10062000814201D90320F8BD60680C21084071683F
:1006300089008842EFD12868C007C00FB8420BD9A3
:10064000286840084000384328602868C007C00F69
:10065000B84201D00120F8BD3078400706D5606867
:10066000072109028843F1680843606000F028F818
:100670006168094A0906090F515CC84007490860CA
:100680000020FFF7C7FE0020F8BD00000020024058
:100690000010024088130000961700080C0000208C
:1006A0000448054900684968044A4905490F515CF6
:1006B000C84070470C00002000100240A617000838
:1006C00010B514A30FCB88B06C460FC415A30FCB85
:1006D0000FC4184A51680C200B4603401648042BDF
:1006E00016D0082B14D18B021B0F6C46E45CD26A27
:1006F00004AB1207120F9A5CC90305D500231946F3
:10070000FFF70CFD214601E020460C4900F040FFB8
:1007100008B010BD02030405060708090A0B0C0DFA
:100720000E0F10100102030405060708090A0B0C3E
:100730000D0E0F100010024000127A0000093D005B
:10074000FEB5040070D02078DC4DC0074AD0686840
:100750000007800F012807D068680007800F022873
:1007600009D16868C00306D5286880033AD5606857
:100770000028E7D036E06168012914D00120800408
:10078000002901D0052914D02A68012109048A43CF
:100790002A602968814329606068002816D0FFF725
:1007A0001BFE06460EE02868012109040843286064
:1007B000F2E7296801432960F5E7FFF70DFE801B8A
:1007C00064286ED828688003F7D50BE0FFF704FE95
:1007D000064604E0FFF700FE801B6428F1D8286875
:1007E0008003F7D420780126800700283CDA686867
:1007F0000007800F07D068680007800F022809D122
:100800006868C00306D42868800716D5E068012808
:100810000AD112E0E0680028286816D0304328602A
:10082000FFF7DAFD074605E043E1FFF7D5FDC01B02
:100830000228C6D828688007F7D52868F821884399
:100840002169C900084328600EE040084000286084
:10085000FFF7C2FD074604E0FFF7BEFDC01B0228FC
:10086000AFD828688007F7D42078000722D5E06940
:100870000028686A0ED030436862FFF7ADFD074676
:1008800004E0FFF7A9FDC01B02289AD8686A800718
:10089000F7D50FE0400840006862FFF79DFD07466E
:1008A00005E09DE0FFF798FDC01B022889D8686A23
:1008B0008007F7D4207804274007002860DA00205A
:1008C0000190E869C00008D4E969B8060143E9610C
:1008D000E969014001200091019079480168C9054A
:1008E00011D40168821511430160FFF775FD009076
:1008F00005E0FFF771FD0099401A642870D8704830
:100900000068C005F5D5A06801280AD0002801D0EC
:10091000052810D0286A400840002862286AB84399
:1009200001E0286A30432862A068002812D0FFF74F
:1009300053FD00900AE0286A38432862F1E7FFF788
:100940004BFD0099411A5F48814249D8286A8007C7
:10095000F5D50DE0FFF740FD009006E0FFF73CFD08
:100960000099411A574881423AD8286A8007F5D43D
:100970000198002804D0E969012000078143E9615A
:100980002078C00635D5606901280CD0401D686B01
:1009900023D038436863686B400840006863FFF702
:1009A0001BFD064622E0686B38436863686B304382
:1009B0006863FFF711FD064604E0FFF70DFD801B9D
:1009C00002285BD8686B8007F7D5686BF8218843ED
:1009D000A169C900084368630BE0B8436863F4E7A2
:1009E0004CE0FFF7F9FC801B022847D8686B8007B2
:1009F000F7D4206A00285ED069680907890F0229A8
:100A000042D0012636060228286805D0B043286067
:100A1000FFF7E2FC044633E0B0432860FFF7DCFC5C
:100A2000074604E0FFF7D8FCC01B022826D8286838
:100A30008001F7D4E86AE16A000900010843E8622E
:100A4000616AA06A084369683D2212049143084321
:100A50006860286830432860FFF7BEFC044604E065
:100A6000FFF7BAFC001B022808D828688001F7D5D8
:100A700021E0FFF7B1FC001B022801D90320FEBDD5
:100A800028688001F5D416E00128F8D06868E96A82
:100A900001221204636A02409A420AD10907E26AFB
:100AA000090F914205D10F2189040840A16A8842AB
:100AB00001D00120FEBD0020FEBD0000001002405C
:100AC0000070004088130000094910B5401E88429C
:100AD00001D9012010BD074C60610321081F00F0FF
:100AE0006FFD0020A06107202061002010BD0000E4
:100AF000FFFFFF0000E000E0F0B502462032137F68
:100B0000012B21D0012515770223537706687468DD
:100B1000B3687027BC430F682743776000680B4CAD
:100B2000A04208D0AC07A04205D0094CA04202D098
:100B3000084CA04204D180244968A3431943816032
:100B4000557700201077F0BD0220F0BD002C014049
:100B50000004004000400140F8B50D46040005D0F7
:100B600026462036707F002802D006E00120F8BD1E
:100B700000203077204600F03DF802207077206892
:100B80008168194A11408160211D206800F0A8FA8F
:100B9000226890689369116A2F680743BC4613481E
:100BA000AF6903403F021F43A868114B3843EF6908
:100BB00018403F020743EB6828693B432F6A000156
:100BC0003F0338431843AA2399436B686D6967460E
:100BD0002D010D432B4397602168886120680362D3
:100BE000012070770020F8BDF8BFFFFFFCFCFFFF7D
:100BF0000303FFFF10B586B0044614216846FFF7D3
:100C0000D5FA01212068890788421CD10F48C169A3
:100C100001221143C161C16911400591426901215D
:100C200049040A434261406908400590222000902F
:100C3000002002210290039001910491092069464D
:100C4000C006FFF705FB06B010BD00000010024013
:100C500010B504460068002911D0042904D00122EF
:100C6000002100F087FA20680122042100F082FAB6
:100C700020680168012211430160002010BD01229B
:100C80000021F3E770477047F8B502680446D06961
:100C900011689368524D05402E462025002E68D0DD
:100CA000DE07F60FFF2721370F40374375D0C70700
:100CB00006D0CF0504D501271762E26F3A43E267F9
:100CC000820708D5DA0706D0276802223A62E26F67
:100CD00004273A43E267420708D5DA0706D02368BB
:100CE00004221A62E26F02231A43E267020709D55F
:100CF0000A462A40324305D0236808221A62E36F6D
:100D00001343E367020508D54A0106D5012223688B
:100D1000D2021A62E26F2A43E267E26F002A30D001
:100D2000800606D5880604D5216E002901D020460C
:100D30008847E06F21688968490602D42821084263
:100D400024D0204600F0C2FA20688168490619D5EF
:100D50008168402291438160E06E002812D02149D1
:100D60004163E06EFFF750FA00280AD0E06E416B55
:100D700006E0860611D58E060FD5216E1DE02046B1
:100D80008847F8BD2046FFF77EFFF8BD2046FFF7F5
:100D90007AFF0020E067F8BDFFE7C60208D55B02D6
:100DA00006D50120000510622046FFF76BFFF2E731
:100DB000030605D50B0603D5616E0029DFD1EAE7EE
:100DC0004006E8D54806E6D51368204640218B4307
:100DD000136065670021616600F0CDF8DBE7000075
:100DE0000F080000B912000810B5040003D0606FAE
:100DF000002802D007E0012010BD0021702001551D
:100E0000204600F027F82420606720680168490820
:100E100049000160204600F0C1FA0128ECD0606A68
:100E2000002802D0204600F0B2F92068416809226B
:100E3000D20291434160206881682A2291438160F7
:100E400020680168012211430160204600F004FA85
:100E500010BD000010B586B0044614216846FFF7A7
:100E6000A5F917492068884227D1164882690121CF
:100E700089030A43826182690A4005924269C90076
:100E80000A434261406908400590032040020090F7
:100E90000220019000200290032003900120049082
:100EA00009206946C006FFF7D3F9002211461B202E
:100EB000FFF7F2FA1B20FFF7E3FA06B010BD0000BF
:100EC0000038014000100240F0B5836F202B49D15B
:100ED00000290AD0002A08D08568DC01A54206D185
:100EE0000369002B03D1CB0701D00120F0BD0346DD
:100EF00060331E7C012E35D001271F7441650146E9
:100F000040310A834A830022FF260266A54204D1AB
:100F10000569002D22D1144D1EE0002D18D08A83C2
:100F2000C2672221816701688D683D438D608168B9
:100F3000A14202D10169002912D00C4901661A743C
:100F400000680168FF222132114301600020F0BDDA
:100F50000569002D02D07F258D83E1E78E83DFE7D1
:100F60000349EBE70220F0BDFF0100004513000834
:100F7000ED12000870477047FEE7000070B586B0BC
:100F800014216846FFF712F9154842690121C90486
:100F90000A43426142690A400592426989100A4344
:100FA000426140690F4C08400F4E059000222146D7
:100FB0003046FFF70AFA00940024012501950294B7
:100FC000694630460394FFF743F9084801906946A3
:100FD000009502948002FFF73BF906B070BD000057
:100FE000001002400F03000000080048000012102B
:100FF00010B58CB024216846FFF7D8F800240121F1
:101000000F48099489070A9412C004608460611E25
:1010100004614160012000900194029003940690C5
:10102000049405940794694608940548FFF794FDD5
:10103000099409A902480A94FFF75EFD0CB010BD9F
:101040001000002010B50A4808490160E12149025A
:10105000416000218160C16001618161C1610C2238
:10106000016242614162FFF7BFFE10BD00380140DE
:101070005000002070477047704710B5FFF7B2F975
:1010800010BD70B596B030216846FFF78FF8002488
:101090000C940D940E94142110A80F94FFF786F869
:1010A0001020099402250490052001260095C00413
:1010B00003960A9008950B946846FFF741FB0720BA
:1010C0000C900E9401210D950F940CA8FFF764FA73
:1010D00010A810961294FFF7E3F916B070BD704790
:1010E000F0B502681D4B0124A4071D4D984203D0A2
:1010F000A04201D0A84203D17026B2434E683243C9
:10110000184E194F98420DD0A0420BD0A84209D0DA
:10111000164CA04206D0B04204D0B84202D0144CC3
:10112000A04204D103242402A243CC682243802499
:10113000A2434C69224302608A68C2620A688262E2
:10114000984206D0B04204D0B84202D0084A904239
:1011500001D10969016301214161F0BD002C014009
:1011600000040040004001400044014000200040D5
:101170000048014010B5CB06DB0E0121046A9940FE
:101180008C430462016A9A401143016210BD10B59C
:10119000818CC90707D001684A6801235B049A4320
:1011A000836A1A434A60818C890707D501684A68B7
:1011B00001231B049A43C36A1A434A60818C49077E
:1011C00007D501684A6801239B049A43036B1A43BD
:1011D0004A60818C090707D501684A680123DB034F
:1011E0009A43436B1A434A60818CC90607D502684B
:1011F000916801231B039943836B19439160818C90
:10120000890607D501688A6801235B039A43C36B8B
:101210001A438A60818C490612D503685A680121F5
:101220000905046C8A4322435A60026C8A4207D142
:101230000268516803235B059943436C194351606D
:10124000818C090607D501684A680123DB04806C9C
:101250009A4302434A6010BDF8B500260446C667AB
:10126000FFF7BAF8054620680068124F000709D555
:1012700001212B46002249052046009700F032F953
:1012800000280DD12068006840070BD501212B46AE
:10129000002289052046009700F024F9002801D09B
:1012A0000320F8BD20206067A0676034267400200A
:1012B000F8BD0000FFFFFF0110B5406A00220146A3
:1012C00040314A834A82FFF7DEFC10BD01680A689C
:1012D000FF2321339A430A6001688A68520852004A
:1012E0008A602021816700210166704710B50146A0
:1012F00040318B8B846F0268222C04D090690821C6
:101300000843906110BD928C446D1A402280426D5A
:10131000921C42654A8B521E4A83498B0029F1D1A7
:1013200001680A68FF2321339A430A6001688A68CA
:10133000520852008A602021816700210166FFF770
:1013400019FE10BD10B5014640318B8B846F0268C9
:10135000222C04D0906908210843906110BD928C22
:101360001A40436D1A70426D521C42654A8B521EE0
:101370004A83498B0029F1D101680A68FF23213390
:101380009A430A6001688A68520852008A602021E4
:10139000816700210166FFF7EDFD10BD70B50446C1
:1013A00080682169E2690843616900251143226868
:1013B00008431168444B1940014311602168486893
:1013C000032212039043E26810434860A169206A37
:1013D0002268084391680B231B02994301439160E3
:1013E0003A492068884210D13948006B8007800F45
:1013F00011D0012805D0022805D003280AD10220E7
:1014000009E0042007E0082005E03249884201D1C4
:10141000002000E010200122E169D2032E4E91420B
:1014200028D1002806D0022807D0042817D0082881
:1014300044D11AE0FFF734F913E06168274A4808FD
:101440008018FEF755FE80B201461039B14235D8FA
:101450002149491C01400007400F084321E0FFF7E4
:101460002FF9616840004A08EAE7616801224808EC
:101470001204E5E7002806D0022807D0042813D07C
:1014800008281BD116E0FFF70BF90FE06168144A3A
:10149000480811E0FEF72CFE80B201461039B14237
:1014A0000CD82168C8600AE0FFF70AF961684A08A9
:1014B0001018EFE7616848088018EBE70125002065
:1014C00020666066284670BDF369FFFF0038014062
:1014D0000010024000440040EFFF00000024F40030
:1014E00000127A00FFB581B005460F46044660350C
:1014F0000A9E38E0701C36D0FEF76EFF0499401A41
:10150000B04221D8002E1FD02068016849072AD593
:10151000C069C043000526D401202168C0020862CA
:1015200020680168FF22A132914301602068816830
:1015300049084900816020206067A067E0670020BB
:101540002874032005B0F0BD20680168FF22A13295
:10155000914301602068816849084900816020202A
:101560006067A067EBE72068C1693846884305D00B
:10157000002103988142BDD00020E3E70121F8E774
:1015800010B50248FFF780FB10BD0000500000209E
:10159000F8B5040C8BB2264682B25E430D0C1046A1
:1015A000370C5843360480190021794116466E43A2
:1015B000370C36048019794126466E438919F8BDE7
:1015C0008307FF22DB0E9A408907090E9940002805
:1015D00008DB830809489B001B18186890430843E0
:1015E000186070470007000F0838830804489B0004
:1015F0001B18D86990430843D861704700E400E0A5
:1016000000ED00E002E008C8121F08C1002AFAD16C
:1016100070477047002001E001C1121F002AFBD172
:10162000704700000EB5564A6B4607CA07C3FEF75F
:10163000E1FEFFF726FDFFF7A1FCFFF703FDFFF733
:10164000D7FC00214F48FFF703FB0125AD074E4CA7
:101650003026686A684606704A480122694640306A
:10166000FFF732FC684600783028F5D068460078ED
:10167000322809D1012211462046FEF7A6FE01229A
:1016800004212046FEF7A1FE68460078362809D1DD
:10169000002201212046FEF798FE00220421204668
:1016A000FEF793FE68460078342809D10122022112
:1016B0002046FEF78AFE012208212046FEF785FE1D
:1016C00068460078382809D1002202212046FEF71A
:1016D0007CFE002208212046FEF777FE684600784F
:1016E000312809D1012211462046FEF76EFE012263
:1016F00008212046FEF769FE68460078352815D196
:1017000004212046FEF75CFE002804D100220121BE
:101710002046FEF75AFE02212046FEF751FE002821
:1017200004D1002208212046FEF74FFE68460078CB
:10173000332809D1012202212046FEF746FE01226C
:1017400004212046FEF741FE68460078372880D104
:1017500008212046FEF734FE002804D10022022191
:101760002046FEF732FE01212046FEF729FE002822
:10177000EDD1002204212046FEF727FE69E7000094
:101780008C170008100000200008004831300000CD
:101790000000000000000000000000000000010246
:1017A000030406070809000000000102030400000A
:1017B000D0170008000000201000000004160008E8
:1017C000E017000810000020C004000014160008F4
:1017D00001000000040000000000000000127A0078
:04000005080000BD32
:00000001FF
